S00F000030372D756172742E73726563C5
S11300000C9434000C9451000C9451000C94510045
S11300100C9451000C9451000C9451000C94510018
S11300200C9451000C9451000C9451000C94510008
S11300300C9451000C945A010C9451000C945100EE
S11300400C9451000C9451000C9445020C947302CE
S11300500C9451000C946F010C9451000C945100B9
S11300600C9451000C94510011241FBECFEFD8E022
S1130070DEBFCDBF11E0A0E0B1E0E2E2F6E002C0F5
S113008005900D92A638B107D9F721E0A6E8B1E0B2
S113009001C01D92AB3CB207E1F70E94F6000C943C
S11300A00F030C940000299A85E08A95F1F700006B
S11300B029980895CF93C82F662311F0289A01C078
S11300C02898549A559A569A579A5F985E985D98CC
S11300D05C98CC230CF45F9AC6FD5E9AC5FD5D9ACC
S11300E0C4FD5C9A0E9453005F985E985D985C988A
S11300F0C3FD5F9AC2FD5E9AC1FD5D9AC0FD5C9A24
S11301000E9453005C9A5D9A5E9A5F9A87EB9BE02B
S11301100197F1F700C00000CF91089560E00E94BC
S11301205A000895611104C080580E948E000895F9
S113013080540E948E00089581E00E948E000895EC
S113014061E00E945A000895CF93DF93EC01219659
S1130150FC018081882329F00E94A00089918111EB
S1130160FBCFDF91CF910895CF93C82F209A559A52
S1130170219A549A559A569A579A8FEF99EF019764
S1130180F1F700C000005D9A5C9A0E9453008FE171
S11301909EE40197F1F700C000000E9453008FEF26
S11301A090E00197F1F700C000000E9453008FEF28
S11301B090E00197F1F700C000005C980E945300A2
S11301C08FEF90E00197F1F700C0000088E20E94F1
S11301D08E0088E00E948E000E949C0086E00E94AF
S11301E08E008C2F0E948E00CF9108958CE00E9487
S11301F0B40060E081E00E94920080E091E00E94FF
S1130200A40061E083E00E94920087E091E00E94F4
S1130210A40060E088E00E9492008CE091E00E94DB
S1130220A40060E08DE00E9492008EE091E00E94C4
S1130230A40061E088E00E94920080E191E00E94C5
S1130240A400ECE7F0E080818F7780838081806474
S113025080838081807F8083EAE7F0E0808180680A
S11302608083808188608083808187608083E1E8E7
S1130270F0E080818B7F8083808183608083EFE6E0
S1130280F0E080818160808387E690E00E949D0297
S1130290789482E191E00E94CB028AE191E00E948D
S11302A0CB028CE391E00E94CB0281E491E00E94B6
S11302B0CB02FFCF1F920F920FB60F9211248F9390
S11302C0EF93FF93EAE7F0E0808180648083FF91FD
S11302D0EF918F910F900FBE0F901F9018951F9262
S11302E00F920FB60F9211240F931F932F933F93E6
S11302F04F935F936F937F938F939F93AF93BF932A
S1130300EF93FF93CF93DF9300D000D0CDB7DEB748
S1130310009178001091790080E290E29A838983B9
S11303209C838B834AE0BE016F5F7F4FC8010E94AC
S1130330DA02CE0101960E94CB0280E20E94B6024C
S113034060E088E00E9492008EE591E00E94A400A3
S113035060E088E00E949200CE0101960E94A40011
S113036040E1BE016F5F7F4FC8010E94DA0260E086
S11303708DE00E9492008FE591E00E94A40060E06D
S11303808DE00E949200CE0101960E94A40061E0DB
S113039088E00E9492008CE591E00E94A40061E054
S11303A088E00E949200CE0101960E94CB0280E276
S11303B00E94B6020233110548F483E691E00E94DC
S11303C0A40083E691E00E94CB0242C0C801C49716
S11303D08637910548F489E691E00E94A40089E6F5
S11303E091E00E94CB0234C0C8018C5A910984392F
S11303F0910548F48CE691E00E94A4008CE691E01B
S11304000E94CB0225C0C80182549140863C9105CC
S113041048F481E791E00E94A40081E791E00E9402
S1130420CB0216C00A5012400631114048F486E748
S113043091E00E94A40086E791E00E94CB0208C0EC
S11304408DE791E00E94A4008DE791E00E94CB0229
S113045082E891E00E94CB020F900F900F900F90D2
S1130460DF91CF91FF91EF91BF91AF919F918F91C8
S11304707F916F915F914F913F912F911F910F91B8
S11304800F900FBE0F901F9018951F920F920FB6EA
S11304900F9211242F938F939F93EF93FF93809147
S11304A0C0002091C6008C71E0918801EF5FEF716C
S11304B090918701E91739F0E0938801F0E0E5575E
S11304C0FE4F208301C082E090918601892B8093A6
S11304D08601FF91EF919F918F912F910F900FBE05
S11304E00F901F9018951F920F920FB60F92112420
S11304F08F939F93EF93FF9390918A018091890149
S1130500981769F0E0918901EF5FEF71E093890139
S1130510F0E0E555FE4F80818093C60005C0E1EC14
S1130520F0E080818F7D8083FF91EF919F918F9187
S11305300F900FBE0F901F90189510928A01109281
S11305408901109288011092870199231CF422E0FA
S11305502093C00090789093C5008093C40088E9EC
S11305608093C10086E08093C200089520918A019F
S11305702F5F2F71909189012917E1F3E22FF0E0A9
S1130580E555FE4F808320938A01E1ECF0E0808101
S1130590806280830895CF93DF93EC018881882360
S11305A031F021960E94B60289918111FBCFDF912F
S11305B0CF910895BB274A3031F4992322F4BDE248
S11305C0909581959F4F0C94E602BB27FB0155271C
S11305D0AA27880F991FAA1FA41710F0A41B83959C
S11305E05051B9F7A05DAA3308F0A95DA193009713
S11305F079F7B111B1931192CB010C94FF02DC0194
S1130600FC01672F71917723E1F7329704C07C9145
S11306106D9370836291AE17BF07C8F30895F89481
S1050620FFCF06
S113062276616C75653A006B65793A006100620027
S113063263001B5B343B33326D0054686973206979
S11306427320616C6C20477265656E20616E642054
S1130652556E6465726C696E65642E001B5B306D49
S11306620054686973206973204E6F726D616C2047
S11306727465787420616761696E2E0020202020E1
S1130682202000526967687400557000446F776EC9
S1130692004C6566740053656C656374006E6F6E1E
S10906A265000D0A0000D2
S9030000FC
