S00F000030372D756172742E73726563C5
S11300000C94AE000C94CB000C94CB000C94CB005D
S11300100C94CB000C94CB000C94CB000C94CB0030
S11300200C94CB000C94CB000C94CB000C94CB0020
S11300300C94CB000C946E020C94CB000C94CB006B
S11300400C94CB000C94CB000C9440030C946E03E2
S11300500C94CB000C9483020C94CB000C94CB0036
S11300600C94CB000C94CB006E6F6E650053656CE2
S1130070656374004C65667400446F776E00557058
S1130080005269676874001B5B306D003E20001BE2
S11300905B39316D000D0A000D0A000D0A001B5B6F
S11300A0306D003E20001B5B39316D000D0A0041AC
S11300B044432076616C75652066726F6D206275AD
S11300C074746F6E73001B5B306D00726561642025
S11300D0001B5B39326D00333A20000D0A0054696D
S11300E06D65722F636F756E74657231001B5B30C2
S11300F06D00726573657420001B5B33316D0032D3
S11301003A20000D0A0063757272656E742054699A
S11301106D65722F636F756E746572312076616CD4
S11301207565001B5B306D007265616420001B5BAC
S113013039346D00313A20000D0A002D2D2D20494F
S11301406E746572616374697665205541525420FA
S1130150636F6E736F6C65202D2D2D0011241FBEEF
S1130160CFEFD8E0DEBFCDBF11E0A0E0B1E0E8E71B
S1130170F8E002C005900D92AA31B107D9F721E049
S1130180AAE1B1E001C01D92A036B207E1F70E94D6
S113019082010C943A040C940000299A85E08A9513
S11301A0F1F7000029980895CF93C82F662311F022
S11301B0289A01C02898549A559A569A579A5F9843
S11301C05E985D985C98CC230CF45F9AC6FD5E9AA9
S11301D0C5FD5D9AC4FD5C9A0E94CD005F985E984F
S11301E05D985C98C3FD5F9AC2FD5E9AC1FD5D9AFD
S11301F0C0FD5C9A0E94CD005C9A5D9A5E9A5F9AFB
S113020087EB9BE00197F1F700C00000CF910895C0
S113021060E00E94D4000895611104C080580E94D7
S11302200801089580540E940801089581E00E9405
S11302300801089561E00E94D4000895CF93DF93EC
S1130240EC012196FC018081882329F00E941A0187
S113025089918111FBCFDF91CF910895CF93DF93E3
S1130260EC012196FC018491882339F00E941A0143
S1130270FE01849121968111F9CFDF91CF910895E8
S1130280CF93C82F209A559A219A549A559A569AE0
S1130290579A8FEF99EF0197F1F700C000005D9A2C
S11302A05C9A0E94CD008FE19EE40197F1F700C0B3
S11302B000000E94CD008FEF90E00197F1F700C09D
S11302C000000E94CD008FEF90E00197F1F700C08D
S11302D000005C980E94CD008FEF90E00197F1F749
S11302E000C0000088E20E94080188E00E94080122
S11302F00E94160186E00E9408018C2F0E940801CA
S1130300CF910895CF93DF9300D000D01F92CDB743
S1130310DEB78CE00E94400160E081E00E940C01A5
S113032080E091E00E941E0161E083E00E940C01E4
S113033087E091E00E941E0160E088E00E940C01C9
S11303408CE091E00E941E0160E08DE00E940C01AF
S11303508EE091E00E941E0161E088E00E940C01A1
S113036080E191E00E941E01ECE7F0E080818F774C
S113037080838081806480838081807F8083EAE7BA
S1130380F0E08081806880838081886080838081C0
S113039087608083E1E8F0E080818B7F80838081C7
S11303A083608083EFE6F0E080818160808387E66C
S11303B090E00E94980378948BE391E00E94F30309
S11303C088E391E00E94F30384E391E00E94F30345
S11303D08EE291E00E94F30388E291E00E94F3032D
S11303E083E291E00E94F30386E091E00E94F3032C
S11303F083E091E00E94F3038FEF90E00E94F30307
S113040089EF90E00E94F30382EF90E00E94F303EF
S11304108DEE90E00E94F3038EED90E00E94F303D2
S11304208BED90E00E94F30387ED90E00E94F303CC
S113043081ED90E00E94F3038BEC90E00E94F303C3
S113044086EC90E00E94F3038FEA90E00E94F303AD
S11304508CEA90E00E94F30386EA90E00E94F303A2
S113046083EA90E00E94F3038EE990E00E94F30394
S11304700F2EF4E8EF2EF12CF02D0E94B103182F6B
S11304808823D9F30E94CF038BE990E00E94F30301
S1130490113399F4F894F7018081918178944AE0BA
S11304A0BE016F5F7F4F0E940504CE0101960E943A
S11304B0E40388E990E00E94F30385E990E00E9458
S11304C0F3038FE890E00E94F3038CE890E00E942D
S11304D0F30387E890E00E94F303CFCF1F920F92BB
S11304E00FB60F9211248F93EF93FF93EAE7F0E096
S11304F0808180648083FF91EF918F910F900FBE74
S11305000F901F9018951F920F920FB60F921124FF
S11305100F931F932F933F934F935F936F937F9307
S11305208F939F93AF93BF93EF93FF93CF93DF93F7
S113053000D000D0CDB7DEB70091780010917900DB
S113054080E290E29A8389839C838B834AE0BE0194
S11305506F5F7F4FC8010E94050460E088E00E943D
S11305600C0184E191E00E941E0160E088E00E9499
S11305700C01CE0101960E941E0140E1BE016F5F95
S11305807F4FC8010E94050460E08DE00E940C01C9
S113059085E191E00E941E0160E08DE00E940C0163
S11305A0CE0101960E941E0161E088E00E940C01C8
S11305B082E191E00E941E0161E088E00E940C014A
S11305C00233110540F481E080931A0181E890E040
S11305D00E942E013CC0C801C4978637910540F49F
S11305E082E080931A018EE790E00E942E012FC0D2
S11305F0C8018C5A91098439910540F483E08093B1
S11306001A0189E790E00E942E0121C0C80182549A
S11306109140863C910540F484E080931A0184E77C
S113062090E00E942E0113C00A501240063111407E
S113063040F485E080931A018DE690E00E942E013B
S113064006C010921A0188E690E00E942E010F90D5
S11306500F900F900F90DF91CF91FF91EF91BF9189
S1130660AF919F918F917F916F915F914F913F9146
S11306702F911F910F910F900FBE0F901F901895FF
S11306801F920F920FB60F9211242F938F939F9363
S1130690EF93FF938091C0002091C6008C71E0918C
S11306A01D01EF5FEF7190911C01E91739F0E093A0
S11306B01D01F0E0E05EFE4F208301C082E09091D6
S11306C01B01892B80931B01FF91EF919F918F91C7
S11306D02F910F900FBE0F901F9018951F920F929D
S11306E00FB60F9211248F939F93EF93FF939091E2
S11306F01F0180911E01981769F0E0911E01EF5FC0
S1130700EF71E0931E01F0E0E05CFE4F8081809386
S1130710C60005C0E1ECF0E080818F7D8083FF910D
S1130720EF919F918F910F900FBE0F901F9018958E
S113073010921F0110921E0110921D0110921C01B3
S113074099231CF422E02093C00090789093C50074
S11307508093C40088E98093C10086E08093C2003E
S1130760089590911D0180911C019817A9F0909112
S11307701C019F5F9F71E92FF0E0E05EFE4F208136
S113078080911B0190931C0110921B0190E0982F03
S11307908827820F911D089580E091E008952091AB
S11307A01F012F5F2F7190911E012917E1F3E22F92
S11307B0F0E0E05CFE4F808320931F01E1ECF0E069
S11307C08081806280830895CF93DF93EC018881D8
S11307D0882331F021960E94CF0389918111FBCFA8
S11307E0DF91CF910895CF93DF93EC012196FC0123
S11307F08491882339F00E94CF03FE0184912196CD
S11308008111F9CFDF91CF910895BB274A3031F49C
S1130810992322F4BDE2909581959F4F0C94110485
S1130820BB27FB015527AA27880F991FAA1FA417C6
S113083010F0A41B83955051B9F7A05DAA3308F0BA
S1130840A95DA193009779F7B111B1931192CB01EE
S11308500C942A04DC01FC01672F71917723E1F7E2
S1130860329704C07C916D9370836291AE17BF0779
S10B0870C8F30895F894FFCFCA
S113087876616C75653A006B65793A0061006200CF
S10D0888630020202020202000003F
S9030000FC
