S012000030352D7365676D656E742E737265638D
S11300000C9434000C9451000C9451000C94510045
S11300100C9451000C9451000C9451000C94510018
S11300200C9451000C9451000C9451000C94510008
S11300300C9451000C9499000C9451000C945100B0
S11300400C94CF000C9451000C9451000C9451006A
S11300500C9451000C9451000C9451000C945100D8
S11300600C9451000C94510011241FBECFEFD8E022
S1130070DEBFCDBF11E0A0E0B1E0E0E2F3E002C0FA
S113008005900D92A031B107D9F721E0A0E1B1E0CC
S113009001C01D92A531B207E1F70E9478000C94CB
S11300A08E010C940000FC01408121E030E002C08C
S11300B0220F331F6A95E2F7242B20830895FC0155
S11300C0908121E030E002C0220F331F6A95E2F7ED
S11300D02095292320830895FC01408121E030E00C
S11300E002C0220F331F6A95E2F7242B2083089560
S11300F00E94160140E060E083E00E943901E1E8DB
S1130100F0E080818B7F8083808183608083EFE651
S1130110F0E080818160808385B58B7F85BD85B566
S1130120836085BDEEE6F0E0808181608083789411
S1130130FFCF1F920F920FB60F9211248F93EF935C
S1130140FF93E1E1F1E080818F5F808380818A30D9
S113015021F4108281818F5F818380911201863026
S113016031F4E1E1F1E0118282818F5F8283809139
S113017013018A3031F4E1E1F1E0128283818F5F6F
S1130180838380911401863011F410921401FF913D
S1130190EF918F910F900FBE0F901F9018951F92A3
S11301A00F920FB60F9211242F933F934F935F93A7
S11301B06F937F938F939F93AF93BF93EF93FF932B
S11301C060911001623049F0E62FF0E0EF5EFE4FDF
S11301D0808140E00E94390106C08091130141E012
S11301E062E00E9439019091100180910001890F11
S11301F080931001833021F48FEF8093000105C0B8
S1130200811103C081E080930001FF91EF91BF91C0
S1130210AF919F918F917F916F915F914F913F919A
S11302202F910F900FBE0F901F90189564E08AE2F3
S113023090E00E94530067E08AE290E00E9453003D
S113024060E084E290E00E945300089585E08A957E
S1130250F1F7000067E08BE290E00E946C0085E01B
S11302608A95F1F7000067E08BE290E00E945F005E
S113027008951F93CF93DF93E82FF0E0EB5FFE4FD9
S1130280C0814111CE7FE62FF0E0EF5FFE4F108179
S113029064E08BE290E00E945F0067E08BE290E014
S11302A00E945F0060E085E290E00E945F0085E0CC
S11302B08A95F1F70000D8E0C0FF06C060E085E24F
S11302C090E00E946C0005C060E085E290E00E942E
S11302D05F000E942601C695D15071F7C8E010FF57
S11302E006C060E085E290E00E946C0005C060E01A
S11302F085E290E00E945F000E9426011695C1509D
S113030071F764E08BE290E00E946C0085E08A95CE
S1130310F1F70000DF91CF911F910895F894FFCF7A
S11303200110204080039F250D9949411F010900B8
S9030000FC
