S00B00006C65642E73726563E4
S11300000C9434000C943E000C943E000C943E007E
S11300100C943E000C943E000C943E000C943E0064
S11300200C943E000C943E000C943E000C943E0054
S11300300C943E000C943E000C943E000C943E0044
S11300400C943E000C943E000C943E000C943E0034
S11300500C943E000C943E000C943E000C943E0024
S11300600C943E000C943E0011241FBECFEFD8E048
S1130070DEBFCDBF0E9458000C94C7000C94000052
S11300802D9A2FEF83EC99E0215080409040E1F7C6
S113009000C000002D9808952D9A2FEF83ED90E372
S11300A0215080409040E1F700C000002D98089551
S11300B0259A2D980E944C002FEF83EC99E0215053
S11300C080409040E1F700C000000E9440002FEF04
S11300D083EC99E0215080409040E1F700C000009B
S11300E00E9440002FEF83ED90E321508040904028
S11300F0E1F700C000000E9440002FEF83ED90E381
S1130100215080409040E1F700C000000E94400070
S11301102FEF83EC99E0215080409040E1F700C03C
S113012000000E9440002FEF83EC99E021508040B2
S11301309040E1F700C000000E944C002FEF83ECD8
S113014099E0215080409040E1F700C000000E94F7
S11301504C002FEF83EC99E0215080409040E1F770
S113016000C000000E944C002FEF83EC99E0215066
S113017080409040E1F700C000002FEF83ED90E352
S1130180215080409040E1F700C0000093CFF894E4
S1050190FFCF9B
S9030000FC
