S00E000030362D6C63642E7372656350
S11300000C9434000C9451000C9451000C94510045
S11300100C9451000C9451000C9451000C94510018
S11300200C9451000C9475010C9451000C945100E3
S11300300C9451000C9451000C9451000C945100F8
S11300400C9451000C9451000C9451000C945100E8
S11300500C9451000C9451000C9451000C945100D8
S11300600C9451000C94510011241FBECFEFD8E022
S1130070DEBFCDBF11E0A0E0B1E0E4E2F4E002C0F5
S113008005900D92AE30B107D9F721E0AEE0B1E0B2
S113009001C01D92A231B207E1F70E94F6000C9450
S11300A010020C940000299A85E08A95F1F700006B
S11300B029980895CF93C82F662311F0289A01C078
S11300C02898549A559A569A579A5F985E985D98CC
S11300D05C98CC230CF45F9AC6FD5E9AC5FD5D9ACC
S11300E0C4FD5C9A0E9453005F985E985D985C988A
S11300F0C3FD5F9AC2FD5E9AC1FD5D9AC0FD5C9A24
S11301000E9453005C9A5D9A5E9A5F9A87EB9BE02B
S11301100197F1F700C00000CF91089560E00E94BC
S11301205A000895611104C080580E948E000895F9
S113013080540E948E00089581E00E948E000895EC
S113014061E00E945A000895CF93DF93EC01219659
S1130150FC018081882329F00E94A00089918111EB
S1130160FBCFDF91CF910895CF93C82F209A559A52
S1130170219A549A559A569A579A8FEF99EF019764
S1130180F1F700C000005D9A5C9A0E9453008FE171
S11301909EE40197F1F700C000000E9453008FEF26
S11301A090E00197F1F700C000000E9453008FEF28
S11301B090E00197F1F700C000005C980E945300A2
S11301C08FEF90E00197F1F700C0000088E20E94F1
S11301D08E0088E00E948E000E949C0086E00E94AF
S11301E08E008C2F0E948E00CF9108958CE00E9487
S11301F0B40060E080E00E94920080E091E00E9400
S1130200A40081E20E94A0002FEF89E698E121502A
S113021080409040E1F700C000000E949C0087EB02
S11302209BE00197F1F700C0000060E081E00E94CC
S1130230920086E091E00E94A4009FEF27EA81E605
S1130240915020408040E1F700C00000E1EBF0E075
S1130250808187608083E0E7F0E080818160808333
S11302607894FFCF0F931F93CF93DF9300D0CDB734
S1130270DEB7082F162F80E290E29A8389834AE042
S1130280BE016F5F7F4F802F90E00E94DB010A3038
S1130290A0F4812F880F810F60E08F5F0E9492008D
S11302A0123021F489810E94A00018C080E30E94CA
S11302B0A00089810E94A00011C0812F880F810FA6
S11302C060E08F5F0E949200123021F489810E94C5
S11302D0A00004C0CE0101960E94A4000F900F90CC
S11302E0DF91CF911F910F9108951F920F920FB636
S11302F00F9211242F933F934F935F936F937F93A8
S11303008F939F93AF93BF93EF93FF9380911101CA
S11303108F5F863018F4809311013CC01092110154
S1130320809110018F5F8093100162E00E9432017E
S1130330809110018A3071F51092100180910F01A3
S11303408F5F80930F0162E080E00E94320161E0E0
S113035080910F010E94320180910F018C3381F44E
S113036080910E018F5F80930E0110920F0161E066
S113037080E00E94320160E080910E010E9432010F
S113038080910E018C3331F410920E0160E080E014
S11303900E943201FF91EF91BF91AF919F918F9194
S11303A07F916F915F914F913F912F910F900FBE6D
S11303B00F901F901895BB274A3031F4992322F4EB
S11303C0BDE2909581959F4F0C94E701BB27FB01FB
S11303D05527AA27880F991FAA1FA41710F0A41B3A
S11303E083955051B9F7A05DAA3308F0A95DA19394
S11303F0009779F7B111B1931192CB010C940002DB
S1130400DC01FC01672F71917723E1F7329704C077
S11304107C916D9370836291AE17BF07C8F3089502
S1070420F894FFCF7A
S111042448656C6C6F0030303A30302E30007A
S9030000FC
