S00E000030362D6C63642E7372656350
S11300000C9434000C9451000C9451000C94510045
S11300100C9451000C9451000C9451000C94510018
S11300200C9451000C94F0010C9451000C94510068
S11300300C9451000C94A2020C9451000C945100A5
S11300400C945A020C9451000C9451000C945100DD
S11300500C9451000C9451000C9451000C945100D8
S11300600C9451000C94510011241FBECFEFD8E022
S1130070DEBFCDBF11E0A0E0B1E0E8E5F6E002C0EC
S113008005900D92A836B107D9F721E0A8E6B1E0B2
S113009001C01D92A037B207E1F70E9410010C9431
S11300A02A030C940000299A85E08A95F1F7000050
S11300B029980895CF93C82F662311F0289A01C078
S11300C02898549A559A569A579A5F985E985D98CC
S11300D05C98CC230CF45F9AC6FD5E9AC5FD5D9ACC
S11300E0C4FD5C9A0E9453005F985E985D985C988A
S11300F0C3FD5F9AC2FD5E9AC1FD5D9AC0FD5C9A24
S11301000E9453005C9A5D9A5E9A5F9A87EB9BE02B
S11301100197F1F700C00000CF91089560E00E94BC
S11301205A00089561E00E945A000895611104C0C4
S113013080580E948E00089580540E948E00089575
S113014081E00E948E00089561E00E945A000895A3
S1130150CF93DF93EC012196FC018081882329F061
S11301600E94A40089918111FBCFDF91CF91089562
S1130170CF93C82F209A559A219A549A559A569AF1
S1130180579A8FEF99EF0197F1F700C000005D9A3D
S11301905C9A0E9453008FE19EE40197F1F700C03E
S11301A000000E9453008FEF90E00197F1F700C028
S11301B000000E9453008FEF90E00197F1F700C018
S11301C000005C980E9453008FEF90E00197F1F7D4
S11301D000C0000088E20E948E0088E00E948E0029
S11301E00E94A00086E00E948E008C2F0E948E0048
S11301F0CF9108950F931F93CF93DF9380E40E94D0
S11302008E00C0E0D1E000E311E089910E949200E9
S1130210C017D107D1F7DF91CF911F910F910895A6
S11302208CE00E94B8000E94FA0060E080E00E9426
S1130230960080E391E00E94A80081E20E94A4005D
S11302402FEF89E698E1215080409040E1F700C00B
S113025000000E94A00087EB9BE00197F1F700C02B
S1130260000060E081E00E94960086E391E00E9435
S1130270A80060E08BE00E94960081E60E94A40042
S113028061E081E00E94960082E60E94A40080E082
S11302900E94A40061E08BE00E94960083E60E9425
S11302A0A4009FEF27EA81E6915020408040E1F7C7
S11302B000C00000E1EBF0E0808187608083E0E72C
S11302C0F0E080818160808385B58D7F85BD85B5B3
S11302D0856085BDEEE6F0E0808181608083E1E8A1
S11302E0F0E080818B7F8083808183608083EFE670
S11302F0F0E08081816080837894FFCF0F931F9317
S1130300CF93DF9300D0CDB7DEB7082F162F80E24E
S113031090E29A8389834AE0BE016F5F7F4F802F0A
S113032090E00E94F5020A30A0F4812F880F810F1B
S113033060E08F5F0E949600123021F489810E9450
S1130340A40018C080E30E94A40089810E94A40034
S113035011C0812F880F810F60E08F5F0E9496008B
S1130360123021F489810E94A40004C0CE010196B8
S11303700E94A8000F900F90DF91CF911F910F91D1
S113038008951F93CF93DF9300D000D0CDB7DEB78D
S1130390182F80E290E29A8389839C838B8360E0A8
S11303A08BE00E94960084E491E00E94A80060E043
S11303B08BE00E9496004AE0BE016F5F7F4F119F61
S11303C0C00111240E94F502CE0101960E94A800EA
S11303D00F900F900F900F90DF91CF911F91089580
S11303E01F920F920FB60F9211242F933F934F93A6
S11303F05F936F937F938F939F93AF93BF93EF9389
S1130400FF9380916F018F5F863018F480936F01A2
S113041040C010926F0180916E018F5F80936E01D6
S113042062E00E947E0180916E018A3091F5109203
S11304306E0180916D018F5F80936D0162E080E0B9
S11304400E947E0161E080916D010E947E01809195
S11304506D010E94C10180916D018C3381F4809102
S11304606C018F5F80936C0110926D0161E080E0FC
S11304700E947E0160E080916C010E947E01809167
S11304806C018C3331F410926C0160E080E00E94C6
S11304907E01FF91EF91BF91AF919F918F917F91D9
S11304A06F915F914F913F912F910F900FBE0F90DD
S11304B01F9018951F920F920FB60F9211242F932D
S11304C03F934F935F936F937F938F939F93AF93D8
S11304D0BF93EF93FF9380916B0161E08F5F0E9464
S11304E0960080916A010E94A40080916A018F5F46
S11304F0863019F080936A0114C010926A018091C9
S11305006B018F5F8A3019F080936B010AC01092DF
S11305106B0161E081E00E9496008EE391E00E940D
S1130520A800FF91EF91BF91AF919F918F917F911F
S11305306F915F914F913F912F910F900FBE0F904C
S11305401F9018951F920F920FB60F9211242F939C
S11305503F934F935F936F937F938F939F93AF9347
S1130560BF93CF93DF93EF93FF93809169018F5FE4
S1130570823019F08093690125C01092690180913D
S113058068018F5F8093680161E08BE00E949600B0
S1130590C09168012C2F30E0F901E75BFE4FD08158
S11305A08D2F0E94A400DA3019F4109268010AC059
S11305B0CF5F2C2F30E08091680190E005962817DA
S11305C0390751F7FF91EF91DF91CF91BF91AF912F
S11305D09F918F917F916F915F914F913F912F9157
S11305E00F900FBE0F901F901895BB274A3031F41F
S11305F0992322F4BDE2909581959F4F0C940103B9
S1130600BB27FB015527AA27880F991FAA1FA417E8
S113061010F0A41B83955051B9F7A05DAA3308F0DC
S1130620A95DA193009779F7B111B1931192CB0110
S11306300C941A03DC01FC01672F71917723E1F715
S1130640329704C07C916D9370836291AE17BF079B
S10B0650C8F30895F894FFCFEC
S1130658000000000000000010101010101010100E
S113066818181818181818181C1C1C1C1C1C1C1CDE
S11306781E1E1E1E1E1E1E1E1F1F1F1F1F1F1F1F86
S113068848656C6C6F0030303A30302E30002020D2
S113069820202020202020200020202049206C69B0
S11306A86B65204469676974616C20456C65637483
S10B06B8726F6E6963730A009E
S9030000FC
