S00B00006C65642E73726563E4
S11300000C9434000C943E000C943E000C943E007E
S11300100C943E000C943E000C943E000C943E0064
S11300200C943E000C943E000C943E000C943E0054
S11300300C943E000C943E000C943E000C943E0044
S11300400C943E000C943E000C943E000C943E0034
S11300500C943E000C943E000C943E000C943E0024
S11300600C943E000C943E0011241FBECFEFD8E048
S1130070DEBFCDBF0E945C000C9475000C940000A0
S11300802D9A2FEF83EC99E0215080409040E1F7C6
S113009000C0000085B1807285B908952D9A2FEFB4
S11300A083ED90E3215080409040E1F700C00000D0
S11300B085B1807285B90895259A2D980E944000D3
S11300C02FEF83EC99E0215080409040E1F700C08D
S11300D000000E944E002FEF83EC99E021508040F5
S11100E09040E1F700C00000E9CFF894FFCF94
S9030000FC
