S01B000030322D6C6564735F6B6E6967687452696465722E73726563F8
S11300000C9434000C943E000C943E000C943E007E
S11300100C943E000C943E000C943E000C943E0064
S11300200C943E000C943E000C943E000C943E0054
S11300300C943E000C943E000C943E000C943E0044
S11300400C943E000C943E000C943E000C943E0034
S11300500C943E000C943E000C943E000C943E0024
S11300600C943E000C943E0011241FBECFEFD8E048
S1130070DEBFCDBF0E9440000C949B000C94000096
S113008084B18F6184B985B1807E85B980E026C052
S113009095B1482F50E021E030E0082E02C0220F35
S11300A0331F0A94E2F7292B25B98823B1F095B1BF
S11300B04150510921E030E002C0220F331F4A951C
S11300C0E2F72095292325B92FEF32E597E0215057
S11300D030409040E1F700C000008F5F8530C1F6EA
S11300E084E026C095B1482F50E021E030E0082E8E
S11300F002C0220F331F0A94E2F7292B25B984305A
S1130100B1F095B14F5F5F4F21E030E002C0220FA4
S1130110331F4A95E2F72095292325B92FEF32E5BD
S113012097E0215030409040E1F700C0000081503A
S10D01308F3FC1F6ABCFF894FFCF68
S9030000FC
