S01B000030322D6C6564735F6B6E6967687452696465722E73726563F8
S11300000C9434000C9449000C9449000C9449005D
S11300100C9449000C9449000C9449000C94490038
S11300200C9449000C9449000C9449000C94490028
S11300300C9449000C9449000C9449000C94490018
S11300400C9449000C9449000C9449000C94490008
S11300500C9449000C9449000C9449000C944900F8
S11300600C9449000C94490011241FBECFEFD8E032
S1130070DEBFCDBF11E0A0E0B1E0E0EAF1E002C0F4
S113008005900D92A630B107D9F70E944B000C944D
S1130090CE000C940000CF93DF9300D000D01F92C9
S11300A0CDB7DEB784B18F6184B985B1807E85B95F
S11300B085E0E0E0F1E0DE01119601900D928A9571
S11300C0E1F740E032C055B1842F90E0E1E0F0E088
S11300D0EC0FFD1FE80FF91F21E030E0008002C0A3
S11300E0220F331F0A94E2F7252B25B94423E1F0AC
S11300F025B10197E1E0F0E0EC0FFD1FE80FF91FD7
S113010081E090E0008002C0880F991F0A94E2F712
S11301108095822385B92FEF82E597E021508040B6
S11301209040E1F700C000004F5F453061F644E0C5
S113013032C055B1842F90E0E1E0F0E0EC0FFD1FF8
S1130140E80FF91F21E030E0008002C0220F331FC6
S11301500A94E2F7252B25B94430E1F025B1019644
S1130160E1E0F0E0EC0FFD1FE80FF91F81E090E003
S1130170008002C0880F991F0A94E2F780958223B9
S113018085B92FEF82E597E0215080409040E1F758
S113019000C0000041504F3F61F693CFF894FFCF69
S10901A00001020304004B
S9030000FC
