S00F000030322D6C6564732E73726563DE
S11300000C9434000C943E000C943E000C943E007E
S11300100C943E000C943E000C943E000C943E0064
S11300200C943E000C943E000C943E000C943E0054
S11300300C943E000C943E000C943E000C943E0044
S11300400C943E000C943E000C943E000C943E0034
S11300500C943E000C943E000C943E000C943E0024
S11300600C943E000C943E0011241FBECFEFD8E048
S1130070DEBFCDBF0E9440000C9457000C940000DA
S1130080259A2D98389A409A8AB18AB95F9A21E0C4
S113009090E24F9BFECF88B1822788B985B189272A
S11300A085B94F99F6CF00004F9BFDCFF2CFF8945E
S10500B0FFCF7C
S9030000FC
