S00F000030322D6C6564732E73726563DE
S11300000C9434000C943E000C943E000C943E007E
S11300100C943E000C943E000C943E000C943E0064
S11300200C943E000C943E000C943E000C943E0054
S11300300C943E000C943E000C943E000C943E0044
S11300400C943E000C943E000C943E000C943E0034
S11300500C943E000C943E000C943E000C943E0024
S11300600C943E000C943E0011241FBECFEFD8E048
S1130070DEBFCDBF0E9440000C9468000C940000C9
S1130080259A2D98389A40988AB18AB95F9A21E0C6
S113009090E23FEF49E688E1315040408040E1F78B
S11300A000C0000088B1822788B985B1892785B945
S11300B03FEF49E688E1315040408040E1F700C01D
S11300C0000088B1822788B985B1892785B9E1CF35
S10700D0F894FFCFCE
S9030000FC
