S00E000030382D6932632E7372656383
S11300000C9434000C9451000C9451000C94510045
S11300100C9451000C9451000C9451000C94510018
S11300200C9451000C9451000C9451000C94510008
S11300300C9451000C9479000C9451000C945100D0
S11300400C9451000C9451000C9443010C947101D4
S11300500C9451000C9451000C9451000C945100D8
S11300600C9451000C94510011241FBECFEFD8E022
S1130070DEBFCDBF11E0A0E0B1E0EEE1F4E002C0EC
S113008005900D92A633B107D9F721E0A6E3B1E0BC
S113009001C01D92AC37B207E1F70E9453000C94E3
S11300A00D020C9400000E94FC0087E690E00E9480
S11300B09B01E1E8F0E080818A7F80838081826017
S11300C08083EFE6F0E0808181608083789481E032
S11300D091E00E94C90188E191E00E94C9012FEFDB
S11300E083EC99E0215080409040E1F700C000008B
S11300F0F2CF1F920F920FB60F9211241F932F93DA
S11301003F934F935F936F937F938F939F93AF939B
S1130110BF93EF93FF93CF93DF9300D0CDB7DEB7B8
S113012080E390E39A838983809100018230D1F047
S1130130833069F1813009F046C0809136018F5FC8
S113014080933601823351F41092360182E0809319
S113015000018DE191E00E94C90138C081E08093E3
S1130160000134C088EB0E940B01811108C083E0B8
S11301708093000184E291E00E94C90127C081E0DC
S1130180809300018AE291E00E94C9011FC081E3CB
S113019091E00E94C90180E00E9429010E9434017B
S11301A0182F0E943F014AE0BE016F5F7F4F812FED
S11301B090E00E94D801CE0101960E94C90181E01D
S11301C08093000103C081E0809300010F900F90A1
S11301D0DF91CF91FF91EF91BF91AF919F918F915B
S11301E07F916F915F914F913F912F911F910F904C
S11301F00FBE0F901F90189587B18F7C87B988B177
S1130200806388B9E9EBF0E080818C7F808388E9A2
S11302108093B800089594EA9093BC00ECEBF0E06E
S113022090819923ECF78093BB0084E88093BC0011
S1130230ECEBF0E080818823ECF79091B900987F93
S1130240983129F081E0903419F480E0089580E039
S113025008958093BB0084E88093BC00ECEBF0E04D
S113026080818823ECF7089584E88093BC00ECEB4C
S1130270F0E080818823ECF78091BB00089584E945
S11302808093BC0008951F920F920FB60F92112411
S11302902F938F939F93EF93FF938091C0002091AE
S11302A0C6008C71E0913901EF5FEF7190913801D4
S11302B0E91739F0E0933901F0E0E45CFE4F208364
S11302C001C082E090913701892B80933701FF911F
S11302D0EF919F918F912F910F900FBE0F901F90D0
S11302E018951F920F920FB60F9211248F939F931C
S11302F0EF93FF9390913B0180913A01981769F035
S1130300E0913A01EF5FEF71E0933A01F0E0E45AD3
S1130310FE4F80818093C60005C0E1ECF0E080814F
S11303208F7D8083FF91EF919F918F910F900FBEEE
S11303300F901F90189510923B0110923A01109261
S113034039011092380199231CF422E02093C00053
S113035090789093C5008093C40088E98093C1008D
S113036086E08093C200089520913B012F5F2F7196
S113037090913A012917E1F3E22FF0E0E45AFE4F9D
S1130380808320933B01E1ECF0E0808180628083F4
S11303900895CF93DF93EC018881882331F021966F
S11303A00E94B40189918111FBCFDF91CF9108950F
S11303B0BB274A3031F4992322F4BDE2909581950C
S11303C09F4F0C94E401BB27FB015527AA27880FF4
S11303D0991FAA1FA41710F0A41B83955051B9F7B5
S11303E0A05DAA3308F0A95DA193009779F7B11134
S11303F0B1931192CB010C94FD01DC01FC01672F38
S113040071917723E1F7329704C07C916D937083E7
S11104106291AE17BF07C8F30895F894FFCFAA
S113041E010D0A54656D7065726174757265207292
S113042E65616465720D0A0073730D0A002D3E73C7
S113043E656E64002D3E61636B002D3E69646C65D0
S109044E00747769000050
S9030000FC
