S00E000030382D6932632E7372656383
S11300000C94B4000C94D1000C94D1000C94D10045
S11300100C94D1000C94D1000C94D1000C94D10018
S11300200C94D1000C94D1000C94D1000C94D10008
S11300300C94D1000C94F4000C94D1000C94D100D5
S11300400C94D1000C94D1000C9404020C94320250
S11300500C94D1000C94D1000C94D1000C94D100D8
S11300600C94D1000C94D10020002E3A20002D2DA8
S11300700D0A3078002D2D20003078302E3A205291
S113008041205241205241205241205241205241AC
S113009020524120524120000D0A202020202020FF
S11300A02E30202E31202E32202E33202E34202E9E
S11300B035202E36202E37202E38202E39202E6142
S11300C0202E62202E63202E64202E65202E660DA5
S11300D00A000D0A004E756D626572206F66206419
S11300E06574656374656420646576696365733AF1
S11300F0200052412052412052412052412052417D
S11301002052412052412052410D0A0D0A003078FC
S1130110302E3A2052412052412052412052412057
S1130120524120524120524120524120000D0A20C8
S113013020202020202E30202E31202E32202E333D
S1130140202E34202E35202E36202E37202E3820F7
S11301502E39202E61202E62202E63202E64202E24
S113016065202E660D0A000011241FBECFEFD8E0D3
S1130170DEBFCDBF11E0A0E0B1E0E4ECF5E002C0E9
S113018005900D92A032B107D9F721E0A0E2B1E0C9
S113019001C01D92A63CB207E1F70E94D3000C9463
S11301A0E0020C9400000E94D30187E690E00E94D4
S11301B05C02E1E8F0E080818A7F80838081826054
S11301C08083EFE6F0E0808181608083789482E030
S11301D091E00E948A028DE291E00E9499028EE0F1
S11301E091E00E949902FFCF1F920F920FB60F92D7
S11301F011241F932F933F934F935F936F937F9398
S11302008F939F93AF93BF93EF93FF93CF93DF931A
S1130210CDB7DEB72597DEBFCDBF80E390E39A83E9
S1130220898380910101823009F450C0833009F43C
S113023084C0813009F09BC0809100018F5F80935E
S113024000018837C9F580E390E39C838B8380E3C6
S11302508D8382EF90E00E94990285ED90E00E94E8
S11302609902809120014AE0BE016D5F7F4F90E0CA
S11302700E94AB02CE0103960E948A0282ED90E0B6
S11302800E9499021092200187E08093000182E08D
S113029091E00E948A0288E990E00E94990289E72D
S11302A090E00E9499022FEF89E698E12150804066
S11302B09040E1F700C00000809100018850803731
S11302C008F058C082E08093010154C0809100017D
S11302D0880F0E94E201182F0E940002111104C02D
S11302E083E08093010146C01091000180E28B837A
S11302F089E8189F812D11248695869586954AE074
S1130300BE016D5F7F4F90E00E94AB021F7029F029
S113031085E790E00E9499020CC08EE690E00E946E
S11303209902CE0103960E948A028AE690E00E9416
S1130330990281E0809301011DC0809120018F5FAB
S1130340809320018091000140E1BE016F5F7F4FE7
S113035090E00E94AB02CE0101960E948A0288E6D8
S113036090E00E94990281E08093010103C081E042
S1130370809301010F900F900F900F900F90DF91D9
S1130380CF91FF91EF91BF91AF919F918F917F9109
S11303906F915F914F913F912F911F910F900FBEDD
S11303A00F901F90189587B18F7C87B988B18063AF
S11303B088B9E9EBF0E080818C7F808388E98093C1
S11303C0B800089594EA9093BC00ECEBF0E09081BF
S11303D09923ECF78093BB0084E88093BC00ECEB9A
S11303E0F0E080818823ECF79091B900987F9831F0
S11303F029F081E0903419F480E0089580E00895B4
S113040084E98093BC0008951F920F920FB60F9257
S113041011242F938F939F93EF93FF938091C000A8
S11304202091C6008C71E0912301EF5FEF719091F0
S11304302201E91739F0E0932301F0E0EA5DFE4F71
S1130440208301C082E090912101892B80932101B6
S1130450FF91EF919F918F912F910F900FBE0F906D
S11304601F9018951F920F920FB60F9211248F931D
S11304709F93EF93FF939091250180912401981706
S113048069F0E0912401EF5FEF77E0932401F0E05D
S1130490EA5BFE4F80818093C60005C0E1ECF0E08A
S11304A080818F7D8083FF91EF919F918F910F9039
S11304B00FBE0F901F9018951092250110922401E1
S11304C0109223011092220199231CF422E020931C
S11304D0C00090789093C5008093C40088E980930D
S11304E0C10086E08093C2000895209125012F5F0A
S11304F02F77909124012917E1F3E22FF0E0EA5BD2
S1130500FE4F808320932501E1ECF0E0808180623E
S113051080830895CF93DF93EC018881882331F0A1
S113052021960E94750289918111FBCFDF91CF91B1
S11305300895CF93DF93EC012196FC0184918823E5
S113054039F00E947502FE01849121968111F9CF40
S1130550DF91CF910895BB274A3031F4992322F4D7
S1130560BDE2909581959F4F0C94B702BB27FB0188
S11305705527AA27880F991FAA1FA41710F0A41B98
S113058083955051B9F7A05DAA3308F0A95DA193F2
S1130590009779F7B111B1931192CB010C94D00269
S11305A0DC01FC01672F71917723E1F7329704C0D6
S11305B07C916D9370836291AE17BF07C8F3089561
S10705C0F894FFCFD9
S11305C407010D0A5363616E204932432D6275732A
S11305D420666F7220646576696365733A0D0A0058
S9030000FC
