S00E000030382D6932632E7372656383
S11300000C9452000C946F000C946F000C946F00CD
S11300100C946F000C946F000C946F000C946F00A0
S11300200C946F000C946F000C946F000C946F0090
S11300300C946F000C948A000C946F000C946F0065
S11300400C946F000C946F000C9438010C946601AE
S11300500C946F000C946F000C946F000C946F0060
S11300600C946F000C946F000D0A00466F756E645B
S113007020646576696365206174206164647265D7
S113008073733A20000D0A5363616E204932432D85
S113009062757320666F7220646576696365733A6E
S11300A00D0A000011241FBECFEFD8E0DEBFCDBF84
S11300B011E0A0E0B1E0ECE2F4E002C005900D92A2
S11300C0A032B107D9F721E0A0E2B1E001C01D924E
S11300D0A53CB207E1F70E9471000C9414020C9441
S11300E000000E94070187E690E00E949001E1E889
S11300F0F0E080818A7F8083808182608083EFE664
S1130100F0E0808181608083789482E091E00E94B5
S1130110BE01FFCF1F920F920FB60F9211241F93AF
S11301202F933F934F935F936F937F938F939F93FB
S1130130AF93BF93EF93FF93CF93DF9300D0CDB7EB
S1130140DEB780E390E39A83898380910101823052
S1130150D1F0833051F1813009F040C08091000129
S113016091E0980F909300018750803718F482E053
S1130170809301019937A8F185E890E00E94CD01B0
S1130180109200012EC080910001880F0E94160178
S1130190182F0E943401111104C083E080930101DF
S11301A020C081E0809301011CC0809100014AE0DD
S11301B0BE016F5F7F4F90E00E94DF018BE690E00D
S11301C00E94CD01CE0101960E94BE0188E690E016
S11301D00E94CD0181E08093010103C081E08093FE
S11301E001010F900F90DF91CF91FF91EF91BF919B
S11301F0AF919F918F917F916F915F914F913F91BB
S11302002F911F910F900FBE0F901F90189587B1DB
S11302108F7C87B988B1806388B9E9EBF0E080818D
S11302208C7F808388E98093B800089594EA909342
S1130230BC00ECEBF0E090819923ECF78093BB00D9
S113024084E88093BC00ECEBF0E080818823ECF739
S11302509091B900987F983129F081E0903419F495
S113026080E0089580E0089584E98093BC000895B7
S11302701F920F920FB60F9211242F938F939F9377
S1130280EF93FF938091C0002091C6008C71E091A0
S11302902201EF5FEF7190912101E91739F0E093AA
S11302A02201F0E0EB5DFE4F208301C082E09091DB
S11302B02001892B80932001FF91EF919F918F91D1
S11302C02F910F900FBE0F901F9018951F920F92B1
S11302D00FB60F9211248F939F93EF93FF939091F6
S11302E0240180912301981769F0E0912301EF5FC5
S11302F0EF77E0932301F0E0EB5BFE4F8081809386
S1130300C60005C0E1ECF0E080818F7D8083FF9121
S1130310EF919F918F910F900FBE0F901F901895A2
S113032010922401109223011092220110922101B3
S113033099231CF422E02093C00090789093C50088
S11303408093C40088E98093C10086E08093C20052
S11303500895209124012F5F2F779091230129176D
S1130360E1F3E22FF0E0EB5BFE4F80832093240166
S1130370E1ECF0E08081806280830895CF93DF9385
S1130380EC018881882331F021960E94A90189918A
S11303908111FBCFDF91CF910895CF93DF93EC01CF
S11303A02196FC018491882339F00E94A901FE0161
S11303B0849121968111F9CFDF91CF910895BB27C4
S11303C04A3031F4992322F4BDE2909581959F4FF0
S11303D00C94EB01BB27FB015527AA27880F991F13
S11303E0AA1FA41710F0A41B83955051B9F7A05D60
S11303F0AA3308F0A95DA193009779F7B111B193DD
S11304001192CB010C940402DC01FC01672F719161
S11304107723E1F7329704C07C916D9370836291E6
S10F0420AE17BF07C8F30895F894FFCF8F
S113042C07010D0A5363616E204932432D627573C3
S113043C20666F7220646576696365733A0D0A00F1
S9030000FC
